:100000000C942A000C946B060C949E060C94D1065A
:100010000C9447000C9447000C9447000C941A0968
:100020000C944D090C94E7080C9447000C9447007D
:100030000C9447000C9447000C9447000C94470024
:100040000C9447000C9447000C9447000C94470014
:100050000C94470011241FBECFE5D8E0DEBFCDBF12
:1000600011E0A0E6B0E0E2E7F1E202C005900D92F7
:10007000AE36B107D9F711E0AEE6B1E001C01D928E
:10008000AA37B107E1F70E94A20C0C94B7100C94A8
:100090000000EF92FF920F931F937B018C0120E0F1
:1000A00030E040E05FE40E94490388238CF0C801FF
:1000B000B70120E030E040E05FE40E94C1010E940F
:1000C000A9039B01AC01205030404040504806C07D
:1000D000C801B7010E94A9039B01AC01B901CA0183
:1000E0001F910F91FF90EF900895A0E0B0E0EBE733
:1000F000F0E00C948010DC012B01FA019C9192300D
:1001000008F439C1EB018881823008F433C194309E
:1001100069F4843009F02FC111969C91119789815F
:10012000981709F428C1A0E6B0E025C1843009F48D
:1001300021C18230A9F4923009F01DC19A01AD01AC
:1001400088E0EA010990AE01E90109929E0181501F
:10015000C1F7E201898111969C918923818308C1AD
:10016000923009F407C112962D903C901397EB0141
:100170008A819B811496AD90BD90CD90DC901797AD
:10018000EC80FD800E811F819101281B390BB90184
:1001900037FF04C066277727621B730B6032710537
:1001A0000CF061C0121613066CF537014801062EDB
:1001B00004C096948794779467940A94D2F721E0C8
:1001C00030E040E050E004C0220F331F441F551FB1
:1001D0006A95D2F721503040404050402E213F21B7
:1001E00040235123211531054105510521F021E01E
:1001F00030E040E050E079018A01E628F72808293C
:1002000019293CC0232BD1F1260E371E350146019A
:10021000062E04C096948794779467940A94D2F734
:1002200021E030E040E050E004C0220F331F441FC3
:10023000551F6A95D2F721503040404050402A2146
:100240003B214C215D21211531054105510521F04E
:1002500021E030E040E050E059016A01A628B728CB
:10026000C828D9280BC0821593052CF01C01AA249C
:10027000BB24650103C0EE24FF24870111969C91E5
:10028000D20111968C91981709F445C0992339F041
:10029000A80197012A193B094C095D0906C0A6016E
:1002A00095012E193F09400B510B57FD08C01182D3
:1002B0003382228224833583468357831DC081E0A5
:1002C00081833382228288279927DC01821B930B4A
:1002D000A40BB50B84839583A683B7830DC0220F2F
:1002E000331F441F551F24833583468357838281E0
:1002F000938101979383828324813581468157813D
:10030000DA01C9010197A109B1098F5F9F4FAF4F72
:10031000BF4328F30BC0918333822282EA0CFB1C7B
:100320000C1D1D1DE482F5820683178383E0808304
:10033000248135814681578157FF1AC0C901AA27F8
:1003400097FDA095BA2F81709070A070B0705695EF
:10035000479537952795822B932BA42BB52B848318
:100360009583A683B7838281938101969383828349
:10037000DF0101C0D201CD01CDB7DEB7E2E10C94BF
:100380009C10A0E2B0E0E7ECF1E00C948C106983E3
:100390007A838B839C832D833E834F835887E9E048
:1003A000EE2EF12CEC0EFD1ECE010196B7010E943F
:1003B0009A058E010F5E1F4FCE010596B8010E946F
:1003C0009A058A8991E089278A8BC701B801AE0115
:1003D000475E5F4F0E9475000E94C504A096E6E04C
:1003E0000C94A810A0E2B0E0E8EFF1E00C948C10BF
:1003F00069837A838B839C832D833E834F835887C5
:10040000F9E0EF2EF12CEC0EFD1ECE010196B701A6
:100410000E949A058E010F5E1F4FCE010596B8010E
:100420000E949A05C701B801AE01475E5F4F0E9466
:1004300075000E94C504A096E6E00C94A810A0E206
:10044000B0E0E5E2F2E00C94801069837A838B835C
:100450009C832D833E834F835887CE010196BE0136
:10046000675F7F4F0E949A05CE010596BE016F5EC1
:100470007F4F0E949A059985923088F08989823051
:10048000C8F0943019F4823051F404C0843029F457
:10049000923081F480E690E0C6C0923049F420E0CA
:1004A0009A858A89981321E02A87CE010996BBC0D4
:1004B000823049F420E09A858A89981321E02A8BBA
:1004C000CE014196B0C02D843E844F8458886D88FB
:1004D0007E888F88988CEE24FF248701AA24BB2471
:1004E000650140E050E060E070E0E0E0F0E0C10174
:1004F00081709070892BE9F0E60CF71C081D191D1E
:100500009A01AB012A0D3B1D4C1D5D1D80E090E062
:10051000A0E0B0E0E614F7040805190520F481E036
:1005200090E0A0E0B0E0BA01A901480F591F6A1F8E
:100530007B1FAA0CBB1CCC1CDD1C97FE08C081E0F5
:1005400090E0A0E0B0E0A82AB92ACA2ADB2A3196B6
:10055000E032F10549F0660C771C881C991C569412
:10056000479437942794C3CFFA85EA892B893C892D
:100570008B859C85280F391F2E5F3F4F17C0CA01FE
:1005800081709070892B61F016950795F794E79428
:1005900080E090E0A0E0B0E8E82AF92A0A2B1B2BC3
:1005A00076956795579547952F5F3F4F77FDE7CF36
:1005B0000CC0440F551F661F771F17FD4160EE0CDE
:1005C000FF1C001F111F21503040403090E05907A0
:1005D00090E0690790E4790760F32B8F3C8FDB0193
:1005E000CA018F779070A070B07080349105A1051A
:1005F000B10561F447FD0AC0E114F10401051105DC
:1006000029F0405C5F4F6F4F7F4F40781A8EFE1786
:1006100011F081E08A8F4D8F5E8F6F8F78A383E01A
:10062000898FCE0149960E94C504A096E2E10C9400
:100630009C10A8E1B0E0EFE1F3E00C948C1069832A
:100640007A838B839C832D833E834F83588789E0F5
:10065000E82EF12CEC0EFD1ECE010196B7010E9492
:100660009A058E010F5E1F4FCE010596B8010E94BC
:100670009A058985823040F08989823028F0C70147
:10068000B8010E94120601C08FEF6896E6E00C9454
:10069000A810A8E1B0E0EFE4F3E00C948C106983BB
:1006A0007A838B839C832D833E834F83588789E095
:1006B000E82EF12CEC0EFD1ECE010196B7010E9432
:1006C0009A058E010F5E1F4FCE010596B8010E945C
:1006D0009A058985823040F08989823028F0C701E7
:1006E000B8010E94120601C08FEF6896E6E00C94F4
:1006F000A810A8E1B0E0EFE7F3E00C948C10698358
:100700007A838B839C832D833E834F83588789E034
:10071000E82EF12CEC0EFD1ECE010196B7010E94D1
:100720009A058E010F5E1F4FCE010596B8010E94FB
:100730009A058985823040F08989823028F0C70186
:10074000B8010E94120601C081E06896E6E00C94B0
:10075000A810ACE0B0E0EFEAF3E00C9490106983ED
:100760007A838B839C83CE010196BE016B5F7F4FA2
:100770000E949A058D81823061F1823050F184307F
:1007800021F48E81882351F12EC02F81388537FDC9
:1007900020C06E812F3131051CF06623F9F023C093
:1007A0008EE190E0821B930B29853A854B855C8511
:1007B00004C056954795379527958A95D2F76623B5
:1007C000B1F050954095309521953F4F4F4F5F4F79
:1007D0000EC020E030E040E050E009C02FEF3FEFD6
:1007E0004FEF5FE704C020E030E040E050E8B9019F
:1007F000CA012C96E2E00C94AC10A8E0B0E0E3E073
:10080000F4E00C9488107B018C0161157105810561
:10081000910519F482E0898360C083E089838EE1C9
:10082000C82ED12CDC82CB82ED82FE820F8318870A
:10083000C801B7010E947604FC013197F7FF3BC065
:10084000222733272E1B3F0B57016801022E04C0BD
:10085000D694C794B794A7940A94D2F740E050E096
:1008600060E070E081E090E0A0E0B0E004C0880FBC
:10087000991FAA1FBB1F2A95D2F70197A109B10999
:100880008E219F21A023B1230097A105B10521F05E
:1008900041E050E060E070E04A295B296C297D2945
:1008A0004D835E836F8378878EE190E08E1B9F0B74
:1008B0009C838B8312C0309781F00E2E04C0EE0C07
:1008C000FF1C001F111F0A94D2F7ED82FE820F83D6
:1008D0001887CE1ADF0ADC82CB821A82CE010196FB
:1008E0000E94C5042896EAE00C94A410EF92FF92AF
:1008F0000F931F937B018C0180E0E81680E0F806DF
:1009000081E0080780E0180788F48FEFE816F1040B
:100910000105110531F028F088E090E0A0E0B0E09A
:1009200017C080E090E0A0E0B0E012C080E0E816E0
:1009300080E0F80680E0080781E0180728F088E1E9
:1009400090E0A0E0B0E004C080E190E0A0E0B0E082
:1009500020E230E040E050E0281B390B4A0B5B0BF3
:1009600004C016950795F794E7948A95D2F7F70196
:10097000E859FF4F8081281B310941095109C901FC
:100980001F910F91FF90EF900895DF92EF92FF92E9
:100990000F931F93FC01E480F58006811781D180BD
:1009A0008081823048F480E090E0A0E1B0E0E82A65
:1009B000F92A0A2B1B2BA5C0843009F49FC0823072
:1009C00021F4EE24FF24870105C0E114F1040105A0
:1009D000110519F4E0E0F0E096C0628173819FEFA9
:1009E000623879070CF05BC022E83FEF261B370B1B
:1009F0002A3131052CF020E030E040E050E02AC000
:100A0000B801A701022E04C07695679557954795C2
:100A10000A94D2F781E090E0A0E0B0E004C0880F33
:100A2000991FAA1FBB1F2A95D2F70197A109B109E7
:100A30008E219F21A023B1230097A105B10521F0AC
:100A400081E090E0A0E0B0E09A01AB01282B392BC7
:100A50004A2B5B2BDA01C9018F779070A070B070C0
:100A600080349105A105B10539F427FF09C0205C48
:100A70003F4F4F4F5F4F04C0215C3F4F4F4F5F4F81
:100A8000E0E0F0E02030A0E03A07A0E04A07A0E470
:100A90005A0710F0E1E0F0E079018A0127C06038E0
:100AA000710564F5FB01E158FF4FD801C7018F774D
:100AB0009070A070B07080349105A105B10539F433
:100AC000E7FE0DC080E490E0A0E0B0E004C08FE35A
:100AD00090E0A0E0B0E0E80EF91E0A1F1B1F17FF10
:100AE00005C016950795F794E794319687E016951B
:100AF0000795F794E7948A95D1F705C0EE24FF2473
:100B00008701EFEFF0E06E2F679566276795902FCE
:100B10009F77D794DD24D7948E2F8695492F462B27
:100B2000582F5D29B701CA011F910F91FF90EF90D7
:100B3000DF900895FC01DB01408151812281622F09
:100B40006F7770E0221F2227221F9381892F880F41
:100B5000822B282F30E0991F9927991F11969C937B
:100B6000119721153105A9F541155105610571054B
:100B700011F482E037C082E89FEF13969C938E9326
:100B800012979A01AB0167E0220F331F441F551FD4
:100B90006A95D1F783E08C930DC0220F331F441F59
:100BA000551F12968D919C911397019713969C93C4
:100BB0008E931297203080E0380780E0480780E469
:100BC000580758F314962D933D934D935C931797C4
:100BD00008952F3F310579F44115510561057105DF
:100BE00019F484E08C93089564FF03C081E08C9332
:100BF00012C01C9210C02F57304013963C932E9376
:100C0000129783E08C9387E0440F551F661F771F70
:100C10008A95D1F7706414964D935D936D937C9390
:100C2000179708951F93DC01FB019C91923008F403
:100C300047C08081823008F443C0943051F411964B
:100C40001C91843099F58181682F70E0611B7109D6
:100C50003FC0843021F0923031F48230B9F181818B
:100C6000882389F12DC011961C9111978230F1F0E3
:100C700081811817D9F412962D913C911397828196
:100C800093818217930794F028173907BCF01496C4
:100C90008D919D910D90BC91A02D2481358146812F
:100CA0005781281739074A075B0718F4112341F0C9
:100CB0000AC082179307A407B50740F4112319F05F
:100CC00061E070E005C06FEF7FEF02C060E070E0B0
:100CD000CB011F9108951F920F920FB60F9211240E
:100CE0002F933F934F935F936F937F938F939F9334
:100CF000AF93BF93EF93FF93DF93CF93CDB7DEB75F
:100D000080916E0190916F01009729F0E0916E0142
:100D1000F0916F010995CF91DF91FF91EF91BF9114
:100D2000AF919F918F917F916F915F914F913F9183
:100D30002F910F900FBE0F901F9018951F920F923A
:100D40000FB60F9211242F933F934F935F936F939E
:100D50007F938F939F93AF93BF93EF93FF93DF9313
:100D6000CF93CDB7DEB7809170019091710100975C
:100D700029F0E0917001F09171010995CF91DF9117
:100D8000FF91EF91BF91AF919F918F917F916F9163
:100D90005F914F913F912F910F900FBE0F901F9039
:100DA00018951F920F920FB60F9211242F933F9315
:100DB0004F935F936F937F938F939F93AF93BF9363
:100DC000EF93FF93DF93CF93CDB7DEB7809172019E
:100DD00090917301009729F0E0917201F0917301F5
:100DE0000995CF91DF91FF91EF91BF91AF919F91C5
:100DF0008F917F916F915F914F913F912F910F90C4
:100E00000FBE0F901F901895DF93CF930F92CDB721
:100E1000DEB78983A5E5B0E0E5E5F0E08081982FB5
:100E20009C7F8981892B8C93ABE5B0E0EBE5F0E00A
:100E3000808180648C930F90CF91DF910895DF9330
:100E4000CF9300D0CDB7DEB79A83898389819A8109
:100E500090936F0180936E010F900F90CF91DF916F
:100E60000895DF93CF930F92CDB7DEB78983A5E5C1
:100E7000B0E0E5E5F0E08081282F237F8981882F8D
:100E800090E0880F991F880F991F822B8C93ABE5F8
:100E9000B0E0EBE5F0E0808180688C930F90CF911B
:100EA000DF910895DF93CF9300D0CDB7DEB79A835B
:100EB000898389819A8190937101809370010F9049
:100EC0000F90CF91DF910895DF93CF930F92CDB71D
:100ED000DEB78983A5E5B0E0E5E5F0E08081282F65
:100EE0002F7B8981882F90E0002496958795079421
:100EF000969587950794982F802D822B8C93ABE540
:100F0000B0E0EBE5F0E0808180628C930F90CF91B0
:100F1000DF910895DF93CF9300D0CDB7DEB79A83EA
:100F2000898389819A8190937301809372010F90D4
:100F30000F90CF91DF910895DF93CF9300D000D031
:100F40000F92CDB7DEB78B836C834D838B8184305A
:100F500018F08C81883078F58B81282F30E0C9011A
:100F6000880F991F820F931F909581959F4FCA9666
:100F70009A838983E981FA818081482F8C81282F87
:100F800030E081E090E002C0880F991F2A95E2F7D7
:100F9000809548238D81282F30E08C81882F90E028
:100FA000B90102C0660F771F8A95E2F7CB01842B47
:100FB000E981FA8180830F900F900F900F900F902E
:100FC000CF91DF910895DF93CF9300D000D0CDB7BC
:100FD000DEB78B836C838B81843090F48B81282FD8
:100FE00030E0C901880F991F820F931F909581955A
:100FF0009F4FCA969A838983E981FA818C81808385
:101000000F900F900F900F90CF91DF910895DF9385
:10101000CF9300D000D00F92CDB7DEB78B836C8317
:101020004D838B81843018F08C81883078F58B81EA
:10103000282F30E0C901880F991F820F931F9095C8
:1010400081959F4FCB969A838983E981FA8180812C
:10105000482F8C81282F30E081E090E002C0880F7B
:10106000991F2A95E2F7809548238D81282F30E03B
:101070008C81882F90E0B90102C0660F771F8A9596
:10108000E2F7CB01842BE981FA8180830F900F90E6
:101090000F900F900F90CF91DF910895DF93CF9332
:1010A00000D000D0CDB7DEB78B836C838B818430CA
:1010B00090F48B81282F30E0C901880F991F820F8F
:1010C000931F909581959F4FCB969A838983E98151
:1010D000FA818C8180830F900F900F900F90CF91A9
:1010E000DF910895DF93CF93CDB7DEB727970FB683
:1010F000F894DEBF0FBECDBF8C836D831B828C81C5
:10110000843018F08D81883050F58C81282F30E0A4
:10111000C901880F991F820F931F909581959F4F4A
:10112000C9969A838983E981FA818081282F30E0EA
:101130008D81882F90E0A90102C0559547958A9529
:10114000E2F7CA0181709070882319F051E05F8343
:1011500001C01F828F818B834B814E8302C05B81D4
:101160005E838E8127960FB6F894DEBF0FBECDBF8B
:10117000CF91DF910895DF93CF9300D000D00F92ED
:10118000CDB7DEB78C831B828C818430A8F48C8130
:10119000282F30E0C901880F991F820F931F909567
:1011A00081959F4FC9969A838983E981FA818081CD
:1011B0008B838B818D8302C08B818D838D810F907A
:1011C0000F900F900F900F90CF91DF9108951F9285
:1011D0000F920FB60F9211242F933F934F935F936B
:1011E0006F937F938F939F93AF93BF93EF93FF93EF
:1011F000DF93CF93CDB7DEB78091750190917601E3
:10120000009729F0E0917501F09176010995CF9151
:10121000DF91FF91EF91BF91AF919F918F917F915E
:101220006F915F914F913F912F910F900FBE0F9053
:101230001F9018951F920F920FB60F9211242F93A3
:101240003F934F935F936F937F938F939F93AF934E
:10125000BF93EF93FF93DF93CF93CDB7DEB780912A
:10126000750190917601009729F0E0917501F09158
:1012700076010995CF91DF91FF91EF91BF91AF91E9
:101280009F918F917F916F915F914F913F912F919E
:101290000F900FBE0F901F9018951F920F920FB6D0
:1012A0000F9211242F933F934F935F936F937F93EC
:1012B0008F939F93AF93BF93EF93FF93DF93CF935E
:1012C000CDB7DEB78091750190917601009729F036
:1012D000E0917501F09176010995CF91DF91FF9131
:1012E000EF91BF91AF919F918F917F916F915F919E
:1012F0004F913F912F910F900FBE0F901F90189517
:10130000DF93CF9300D0CDB7DEB79A8389830E9455
:10131000FB0AAFE4B0E0EFE4F0E0808188608C93FA
:10132000AFE4B0E0EFE4F0E0808184608C93A9E565
:10133000B0E0E9E5F0E0808184608C93ACE4B0E05B
:10134000E981FA818081918111969C938E93AEE41C
:10135000B0E0EEE4F0E08081982F987FE981FA8197
:101360008281892B8C93E981FA8182818093740137
:101370000F900F90CF91DF910895DF93CF9300D01E
:10138000CDB7DEB79A8389830E94FB0AAFE4B0E051
:10139000EFE4F0E0808188608C93AFE4B0E0EFE4AC
:1013A000F0E0808184608C93AEE4B0E0EEE4F0E0A5
:1013B000808188608C93A9E5B0E0E9E5F0E0808168
:1013C00080618C93AAE4B0E0E981FA818281938103
:1013D00011969C938E93ACE4B0E0E981FA81808110
:1013E000918111969C938E93AEE4B0E0EEE4F0E030
:1013F0008081982F987FE981FA818481892B8C9351
:10140000E981FA818481809374010F900F90CF91CC
:10141000DF910895EF92FF920F931F93DF93CF9385
:1014200000D000D000D0CDB7DEB79E838D83ED8194
:10143000FE81E180F28003811481ED81FE8185814E
:1014400096819C0140E050E0C801B7010E94331032
:101450009B01AC0180E492E4AFE0B0E0BC01CD01BF
:101460000E945E10DA01C90101979C838B83ED8194
:10147000FE818081882F90E0A0E0B0E0BC01CD012A
:101480000E94FD03DC01CB01BC01CD0126E636ED57
:1014900043E254E40E941F02DC01CB01BC01CD01F8
:1014A0000E944900DC01CB019A8389830E94FB0AD8
:1014B000AFE4B0E0EFE4F0E08081282F2F73ED81FE
:1014C000FE818085882F90E000249695879507946B
:1014D000969587950794982F802D822B8C93AFE457
:1014E000B0E0EFE4F0E08081282F2F7CED81FE81D9
:1014F0008185882F90E082959295907F9827807FB4
:101500009827822B8C93AFE4B0E0EFE4F0E0808189
:1015100081608C93AFE4B0E0EFE4F0E08081826022
:101520008C93AEE4B0E0EEE4F0E0808188608C93D0
:10153000AEE4B0E0EEE4F0E0808180618C93EAE418
:10154000F0E08B819C8191838083E8E4F0E08981E5
:101550009A8191838083AEE4B0E0EEE4F0E0808194
:10156000982F987FED81FE818781892B8C93ED8167
:10157000FE8187818093740126960FB6F894DEBFB2
:101580000FBECDBFCF91DF911F910F91FF90EF90D4
:101590000895DF93CF9300D0CDB7DEB79A838983C8
:1015A00089819A8190937601809375010F900F90B5
:1015B000CF91DF910895DF93CF93CDB7DEB7AEE43F
:1015C000B0E0EEE4F0E08081887F8C93CF91DF91F2
:1015D0000895DF93CF93CDB7DEB7AEE4B0E0EEE48D
:1015E000F0E08081982F987F80917401892B8C93F3
:1015F000CF91DF910895DF93CF93CDB7DEB7A9E503
:10160000B0E0E9E5F0E08081837C8C93EFE4F0E0EA
:101610001082EEE4F0E01082EAE4F0E01182108241
:10162000E8E4F0E011821082ECE4F0E01182108234
:10163000CF91DF910895DF93CF930F92CDB7DEB7AF
:1016400082E060E041E00E949C0782E061E041E0CE
:101650000E949C0782E062E041E00E949C0782E0D9
:1016600063E041E00E949C07198208C080E0698124
:1016700041E00E949C0789818F5F89838981863040
:10168000A8F30F90CF91DF910895DF93CF93CDB75B
:10169000DEB760970FB6F894DEBF0FBECDBF8F8761
:1016A000688B8F85863008F080C082E068890E9450
:1016B0004E0880E06F8541E00E94070880E090E0DE
:1016C000A0E0B0E48B879C87AD87BE876B857C8567
:1016D0008D859E8520E030E04AE753E40E941F029A
:1016E000DC01CB018F839887A987BA876F817885C2
:1016F00089859A8520E030E040E85FE30E94790325
:1017000088232CF481E090E09E838D833FC06F811D
:10171000788589859A8520E03FEF4FE757E40E945E
:10172000190318164CF56B857C858D859E8520E008
:1017300030E040E251E40E941F02DC01CB01BC0119
:10174000CD010E944900DC01CB019E838D830FC037
:1017500089E190E09C838B838B819C810197F1F7D9
:101760009C838B838D819E8101979E838D838D8148
:101770009E81009769F714C06F81788589859A8565
:101780000E944900DC01CB019E838D838D819E8167
:101790009A83898389819A810197F1F79A83898352
:1017A00080E06F8540E00E94070860960FB6F894CD
:1017B000DEBF0FBECDBFCF91DF910895DF93CF93F2
:1017C000CDB7DEB7109279011092780110927701AF
:1017D00088E691E00E94BD09CF91DF910895DF93E3
:1017E000CF93CDB7DEB70E94DB0ACF91DF9108958A
:1017F000DF93CF93CDB7DEB70E94E90ACF91DF9197
:101800000895DF93CF93CDB7DEB7A2E3B0E0E2E374
:10181000F0E0908180E889278C93809177018F5F39
:1018200080937701809177018C33C1F41092770116
:10183000809178018F5F80937801809178018C335B
:1018400069F410927801809179018F5F809379011A
:1018500080917901833611F410927901CF91DF9153
:101860000895DF93CF93CDB7DEB7AFE5B0E0EFE5F6
:10187000F0E0808180688C9380E060E041E00E942D
:101880009C0780E061E041E00E949C0780E062E00C
:1018900041E00E949C0780E063E041E00E949C07D9
:1018A00080E064E041E00E949C0780E065E041E068
:1018B0000E949C0782E060E041E00E949C0782E079
:1018C00061E041E00E949C0782E062E041E00E940A
:1018D0009C0782E063E041E00E949C0783E062E0B5
:1018E00041E00E94070881E062E041E00E940708B1
:1018F00082E00E94040783E00E94310780E00E949A
:1019000064078EED9BE00E941F078FEE9BE00E9414
:10191000520788EF9BE00E948A0781E09CE00E94CA
:10192000C90A88E691E00E94BD0983E067E041E0D2
:101930000E949C0783E067E041E00E940708CF9186
:10194000DF9108950F931F93DF93CF93CDB7DEB749
:10195000C455D0400FB6F894DEBF0FBECDBF0E9475
:10196000310C809177019AE0692F0E945210892FE3
:10197000982F82E0692F0E944E0880E060E041E0ED
:101980000E940708FE01EF5AFF4F80E090E0A0E0C0
:10199000B0E480839183A283B3838E01035B1F4FE6
:1019A000FE01EF5AFF4F608171818281938120E0B7
:1019B00030E04AE753E40E941F02DC01CB01F8014A
:1019C00080839183A283B383FE01E35BFF4F608139
:1019D00071818281938120E030E040E85FE30E94E2
:1019E0007903882344F4FE01E55BFF4F81E090E03A
:1019F0009183808364C0FE01E35BFF4F608171814E
:101A00008281938120E03FEF4FE757E40E94190362
:101A100018160CF043C0FE01EF5AFF4F6081718130
:101A20008281938120E030E040E251E40E941F0275
:101A3000DC01CB018E01055B1F4FBC01CD010E9473
:101A40004900DC01CB01F801918380831FC0FE01B6
:101A5000E75BFF4F89E190E091838083FE01E75BC4
:101A6000FF4F808191810197F1F7FE01E75BFF4F06
:101A700091838083DE01A55BBF4FFE01E55BFF4FD5
:101A800080819181019711969C938E93FE01E55B75
:101A9000FF4F808191810097D1F627C08E01055BB1
:101AA0001F4FFE01E35BFF4F608171818281938153
:101AB0000E944900DC01CB01F80191838083DE01A3
:101AC000A95BBF4FFE01E55BFF4F808191818D9344
:101AD0009C93FE01E95BFF4F808191810197F1F7B3
:101AE000FE01E95BFF4F9183808380E060E040E08E
:101AF0000E940708809177019AE0692F0E94521096
:101B0000982F82E0692F0E944E0880E061E041E05A
:101B10000E940708FE01ED5BFF4F80E090E0A0E02F
:101B2000B0E480839183A283B3838E01015C1F4F55
:101B3000FE01ED5BFF4F608171818281938120E026
:101B400030E04AE753E40E941F02DC01CB01F801B8
:101B500080839183A283B383FE01FF9660817181AC
:101B60008281938120E030E040E85FE30E947903C6
:101B700088232CF481E090E09EAF8DAF46C0FE013B
:101B8000FF96608171818281938120E03FEF4FE772
:101B900057E40E941903181664F5FE01ED5BFF4F30
:101BA000608171818281938120E030E040E251E4E4
:101BB0000E941F02DC01CB01BC01CD010E94490043
:101BC000DC01CB019EAF8DAF0FC089E190E09CAFEF
:101BD0008BAF8BAD9CAD0197F1F79CAF8BAF8DAD0B
:101BE0009EAD01979EAF8DAF8DAD9EAD009769F70D
:101BF00016C0FE01FF9660817181828193810E94EF
:101C00004900DC01CB019EAF8DAF8DAD9EAD9AAF8B
:101C100089AF89AD9AAD0197F1F79AAF89AF80E0AE
:101C200061E040E00E940708809178019AE0692F06
:101C30000E945210892F982F82E0692F0E944E082F
:101C400080E062E041E00E94070880E090E0A0E0D0
:101C5000B0E48DAB9EABAFABB8AF6DA97EA98FA939
:101C600098AD20E030E04AE753E40E941F02DC0117
:101C7000CB0189AB9AABABABBCAB69A97AA98BA9F9
:101C80009CA920E030E040E85FE30E9479038823CC
:101C90002CF481E090E098AB8FA73FC069A97AA9A6
:101CA0008BA99CA920E03FEF4FE757E40E9419035E
:101CB00018164CF56DA97EA98FA998AD20E030E0EB
:101CC00040E251E40E941F02DC01CB01BC01CD01C6
:101CD0000E944900DC01CB0198AB8FA70FC089E1BE
:101CE00090E09EA78DA78DA59EA50197F1F79EA7D1
:101CF0008DA78FA598A9019798AB8FA78FA598A9B5
:101D0000009769F714C069A97AA98BA99CA90E94B8
:101D10004900DC01CB0198AB8FA78FA598A99CA7A0
:101D20008BA78BA59CA50197F1F79CA78BA780E0BB
:101D300062E040E00E940708809178019AE0692FF4
:101D40000E945210982F82E0692F0E944E0880E076
:101D500063E041E00E94070880E090E0A0E0B0E48A
:101D60008FA398A7A9A7BAA76FA178A589A59AA5B7
:101D700020E030E04AE753E40E941F02DC01CB017F
:101D80008BA39CA3ADA3BEA36BA17CA18DA19EA19F
:101D900020E030E040E85FE30E94790388232CF4E0
:101DA00081E090E09AA389A33FC06BA17CA18DA1A3
:101DB0009EA120E03FEF4FE757E40E941903181659
:101DC0004CF56FA178A589A59AA520E030E040E206
:101DD00051E40E941F02DC01CB01BC01CD010E9435
:101DE0004900DC01CB019AA389A30FC089E190E0EF
:101DF00098A38F8F8F8D98A10197F1F798A38F8F5C
:101E000089A19AA101979AA389A389A19AA1009770
:101E100069F714C06BA17CA18DA19EA10E9449000D
:101E2000DC01CB019AA389A389A19AA19E8F8D8FF2
:101E30008D8D9E8D0197F1F79E8F8D8F80E063E0F1
:101E400040E00E940708809179019AE0692F0E9482
:101E50005210892F982F82E0692F0E944E0880E04F
:101E600064E041E00E94070880E090E0A0E0B0E478
:101E7000898F9A8FAB8FBC8F698D7A8D8B8D9C8D5E
:101E800020E030E04AE753E40E941F02DC01CB016E
:101E90008D8B9E8BAF8BB88F6D897E898F89988D46
:101EA00020E030E040E85FE30E94790388232CF4CF
:101EB00081E090E09C8B8B8B3FC06D897E898F8900
:101EC000988D20E03FEF4FE757E40E941903181662
:101ED0004CF5698D7A8D8B8D9C8D20E030E040E251
:101EE00051E40E941F02DC01CB01BC01CD010E9424
:101EF0004900DC01CB019C8B8B8B0FC089E190E00A
:101F00009A8B898B89899A890197F1F79A8B898BAA
:101F10008B899C8901979C8B8B8B8B899C890097E3
:101F200069F714C06D897E898F89988D0E94490058
:101F3000DC01CB019C8B8B8B8B899C89988B8F8749
:101F40008F8598890197F1F7988B8F8780E064E0FF
:101F500040E00E940708809179019AE0692F0E9471
:101F60005210982F82E0692F0E944E0880E065E0B1
:101F700041E00E94070880E090E0A0E0B0E48B8799
:101F80009C87AD87BE876B857C858D859E8520E08F
:101F900030E04AE753E40E941F02DC01CB018F834B
:101FA0009887A987BA876F81788589859A8520E087
:101FB00030E040E85FE30E94790388232CF481E05D
:101FC00090E09E838D833FC06F81788589859A8557
:101FD00020E03FEF4FE757E40E94190318164CF535
:101FE0006B857C858D859E8520E030E040E251E464
:101FF0000E941F02DC01CB01BC01CD010E944900FF
:10200000DC01CB019E838D830FC089E190E09C832E
:102010008B838B819C810197F1F79C838B838D81CE
:102020009E8101979E838D838D819E81009769F7A4
:1020300014C06F81788589859A850E944900DC01EA
:10204000CB019E838D838D819E819A838983898133
:102050009A810197F1F79A83898380E065E040E0F7
:102060000E9407087ECC629FD001739FF001829F7F
:10207000E00DF11D649FE00DF11D929FF00D839F17
:10208000F00D749FF00D659FF00D9927729FB00DB4
:10209000E11DF91F639FB00DE11DF91FBD01CF01C7
:1020A00011240895991B79E004C0991F961708F030
:1020B000961B881F7A95C9F780950895A1E21A2E7C
:1020C000AA1BBB1BFD010DC0AA1FBB1FEE1FFF1FDC
:1020D000A217B307E407F50720F0A21BB30BE40B2C
:1020E000F50B661F771F881F991F1A9469F7609573
:1020F0007095809590959B01AC01BD01CF0108952D
:102100002F923F924F925F926F927F928F929F9207
:10211000AF92BF92CF92DF92EF92FF920F931F93F5
:10212000CF93DF93CDB7DEB7CA1BDB0B0FB6F894A6
:10213000DEBF0FBECDBF09942A88398848885F84E6
:102140006E847D848C849B84AA84B984C884DF8057
:10215000EE80FD800C811B81AA81B981CE0FD11D3B
:102160000FB6F894DEBF0FBECDBFED010895F89411
:02217000FFCF9F
:10217200000000000000000000010202030303034C
:102182000404040404040404050505050505050505
:1021920005050505050505050606060606060606E5
:1021A20006060606060606060606060606060606CD
:1021B20006060606060606060707070707070707B5
:1021C200070707070707070707070707070707079D
:1021D200070707070707070707070707070707078D
:1021E200070707070707070707070707070707077D
:1021F2000707070707070707080808080808080865
:10220200080808080808080808080808080808084C
:10221200080808080808080808080808080808083C
:10222200080808080808080808080808080808082C
:10223200080808080808080808080808080808081C
:10224200080808080808080808080808080808080C
:1022520008080808080808080808080808080808FC
:1022620008080808080808080808080808080808EC
:0E22720008080808080808080000093D0300D5
:00000001FF
